:020000040800F2
:1000000000200020691D0008ED1C0008EF1C0008FE
:1000100000000000000000000000000000000000E0
:10002000000000000000000000000000751700083C
:100030000000000000000000E1170008F11C0008AB
:10004000B91D000800000000B91D0008B91D000816
:10005000B91D0008B91D0008B91D0008B91D000828
:1000600000000000B91D0008B91D0008B91D0008F6
:10007000B91D0008F91C0008B91D000800000000A7
:10008000B91D0008B91D000800000000B91D0008D6
:10009000B91D0008B91D0008B91D0008B91D0008E8
:1000A000B91D0008B91D0008B91D0008B91D0008D8
:1000B000B91D000800000000000000000000000062
:1000C00010B5064C2378002B07D1054B002B02D02E
:1000D000044800E000BF0123237010BD0800002089
:1000E00000000000041E0008084B10B5002B03D0D0
:1000F0000749084800E000BF07480368002B00D10B
:1001000010BD064B002BFBD09847F9E7000000001C
:100110000C000020041E0008080000200000000061
:10012000002243088B4274D303098B425FD3030A36
:100130008B4244D3030B8B4228D3030C8B420DD349
:10014000FF22090212BA030C8B4202D312120902D7
:1001500065D0030B8B4219D300E0090AC30B8B4215
:1001600001D3CB03C01A5241830B8B4201D38B03C3
:10017000C01A5241430B8B4201D34B03C01A524168
:10018000030B8B4201D30B03C01A5241C30A8B42AB
:1001900001D3CB02C01A5241830A8B4201D38B0296
:1001A000C01A5241430A8B4201D34B02C01A52413A
:1001B000030A8B4201D30B02C01A5241CDD2C309AC
:1001C0008B4201D3CB01C01A524183098B4201D328
:1001D0008B01C01A524143098B4201D34B01C01A13
:1001E000524103098B4201D30B01C01A5241C3088B
:1001F0008B4201D3CB00C01A524183088B4201D3FA
:100200008B00C01A524143088B4201D34B00C01AE5
:100210005241411A00D20146524110467047FFE751
:1002200001B5002000F006F802BDC0460029F7D055
:1002300076E770477047C04610B5064A136810212C
:100240000B431360002001F015FD01F0C3FC0020FA
:1002500010BDC04600200240024A136801331360FB
:100260007047C046680D0020014B18687047C046B3
:10027000680D002070B5002811DB8308144DC033D1
:100280009B005C5903221040C000FC3216008640DF
:10029000B44389010A40824022435A5170BDC0B222
:1002A0000F230340083B9B0806339B00094A9446F2
:1002B00063445D6803221040C000FF242200824096
:1002C000954389010C4084402C435C60E6E7C046BE
:1002D00000E100E000ED00E01F2318401E3B8340DA
:1002E000014A13607047C04600E100E001380A4B44
:1002F00098420FD8094A50600948036A1B021B0A3A
:10030000C02109060B430362002393600733136087
:10031000002070470120FCE7FFFFFF0010E000E035
:1003200000ED00E0042805D0054A136804218B4342
:1003300013607047024A136804210B431360F8E707
:1003400010E000E0F0B5C64600B582B000237EE0C4
:10035000DF080837BF003E5807251D40AD000F24B9
:10036000AC40A6430C69AC40250035433D507EE0CF
:10037000856864462540CE68BE4035438560456843
:100380002C004546AC434D682E09012535409D4063
:100390002C434460C46865462C408D68BD402C43A6
:1003A000C4604C68E40051D5434DAE690124264336
:1003B000AE61AD692C400194019C9C08A51CAD0068
:1003C0003E4EAE5903251D40AD000F27AF40BE4342
:1003D0009027FF05B84265D0394FB84264D0394FF5
:1003E000B84263D0384FB8425AD00527AF403D00DD
:1003F00035430234A400314EA551344C2568D44312
:1004000026002E404F68FF0301D515432E002F4DC7
:100410002E606D682E0026404F68BF0301D515433E
:100420002E002A4D6E60AD682E0026404F68FF02F8
:1004300001D515432E00254DAE60ED682C404E6869
:10044000B60201D52A431400204AD46001330A6859
:100450001400DC402CD001249C40A0462240F5D062
:100460004D68022D00D173E7122D00D170E70668A8
:100470005F0003252C00BC40E443A44626404C68A2
:100480002540BD40354305604D686E1E012E00D8E5
:100490006EE7112D00D16BE7122D00D07AE767E7E8
:1004A0000327A3E70027A1E701279FE702279DE78E
:1004B00002B004BC9046F0BD0010024000000140B4
:1004C0000004004800080048000C004800040140F7
:1004D00010B5041E59D04123C35C002B43D0242205
:1004E0004123E2542268136801218B431360226880
:1004F000274B61680B4013612268936825490B40C4
:100500009360E368012B34D0226884231B02A16826
:100510000B439360E368022B32D0226851681E4B74
:100520000B4353602268D3681A490B40D36021689B
:10053000236962691343A26912021343CB602268E4
:10054000E369216A0B4313602268136801210B439E
:100550001360002363641F314122A15423630132DD
:10056000A354002010BD00224033C25401F05CFBB4
:10057000B5E7226880231B02A1680B439360C9E79B
:100580002368802212015A60C7E70120EAE7C046CB
:10059000FFFFFFF0FF7FFFFF00800002F0B5412367
:1005A000C35C202B01D00220F0BD2033C35C012BA3
:1005B0001CD04024012202554125242343550668BE
:1005C00033689343336006683368094F3B403360B8
:1005D000066833681943316001680B6813430B6088
:1005E00020234355002303550020DDE70220DBE7ED
:1005F000FFEFFFFFF0B54123C35C202B01D00220A9
:10060000F0BD2033C35C012B1AD0402401220255D7
:1006100041252423435506683368934333600668B5
:100620003368084F3B4009021943316001680B6889
:1006300013430B6020234355002303550020DFE7BD
:100640000220DDE7FFF0FFFF70B582B00400036811
:10065000DB0736D5C14B5A680C231340042B28D036
:10066000BE4B5A680C231340082B1ED06368012B25
:100670004BD0002B50D1B94B1A68B9490A401A60C7
:100680001A68B8490A401A606368002B5CD0FFF70B
:10069000EBFD0500B14B1B689B0312D4FFF7E4FD93
:1006A000401B6428F6D90320EAE1AC4B5B68DB030E
:1006B000DCD5AA4B1B689B0303D56368002B00D1D4
:1006C000DBE123689B0762D5A44B5B680C221A42CE
:1006D0004CD0A24B5A680C231340082B42D0E3683D
:1006E000002B76D09D4A136801210B431360FFF75E
:1006F000BBFD0500994B1B689B0761D4FFF7B4FD58
:10070000401B0228F6D90320BAE1944A11688023DD
:100710005B020B431360B7E7052B09D08F4B1A68B8
:100720008F490A401A601A688E490A401A60ABE77E
:100730008A4B19688022D2020A431A601968802203
:1007400052020A431A609FE7FFF78EFD0500834BB4
:100750001B689B03B5D5FFF787FD401B6428F6D9BE
:1007600003208DE17D4B5B68DB03B8D47B4B1B68BA
:100770009B0704D5E368012B01D0012080E1774974
:100780000B68F82293432269D20013430B6023685D
:100790001B0744D5E369002B2ED0704A536A012110
:1007A0000B435362FFF760FD05006C4B5B6A9B07D0
:1007B00035D4FFF759FD401B0228F6D903205FE12D
:1007C00066490B68F82293432269D20013430B60F9
:1007D000DDE7624A136801218B431360FFF744FD94
:1007E00005005E4B1B689B07D1D5FFF73DFD401B05
:1007F0000228F6D9032043E1584A536A01218B436A
:100800005362FFF731FD0500544B5B6A9B0706D529
:10081000FFF72AFD401B0228F6D9032030E12368A8
:100820005B0775D54D4BDB69DB002ED44B4AD16994
:10083000802040050143D161D36903400193019BAE
:100840000125494B1B68DB0521D5A368012B32D05C
:10085000002B36D1414B1A6A01218A431A621A6A67
:1008600003318A431A62A368002B40D0FFF7FCFCD7
:1008700006003A4B1B6A9B0748D4FFF7F5FC801B28
:100880003A4B9842F5D90320FAE00025D9E7364AD9
:10089000116880235B000B431360FFF7E5FC060043
:1008A000314B1B68DB05D0D4FFF7DEFC801B6428CE
:1008B000F6D90320E4E0294A136A01210B431362AD
:1008C000D1E7052B09D0254B1A6A01218A431A6208
:1008D0001A6A03318A431A62C5E7204B1A6A042157
:1008E0000A431A621A6A03390A431A62BBE7FFF71E
:1008F000BBFC0600194B1B6A9B0707D5FFF7B4FC2E
:10090000801B1A4B9842F5D90320B9E0012D1ED067
:100910002368DB065AD56369012B2BD0053349D0F8
:100920000E4B5A6B04210A435A635A6B03398A43AC
:100930005A63FFF799FC0500084B5B6B9B0745D595
:10094000FFF792FC401B0228F6D9032098E0034AE7
:10095000D36907490B40D361DAE7C0460010024073
:10096000FFFFFEFFFFFFFBFF007000408813000049
:10097000FFFFFFEF444B5A6B04210A435A635A6B43
:1009800003390A435A63FFF76FFC05003E4B5B6B6C
:100990009B0706D4FFF768FC401B0228F6D903200A
:1009A0006EE039494B6BF8229343A269D20013439E
:1009B0004B630BE0344A536B04218B435363536BFB
:1009C000F4318B43A169C9000B435363236A002BA5
:1009D00055D02D4A51680C220A40082A52D0022BC9
:1009E00012D0294A136829490B401360FFF73CFCD9
:1009F0000400254B1B689B013DD5FFF735FC001B10
:100A00000228F6D903203BE01F4A13681F490B4018
:100A10001360FFF729FC05001B4B1B689B0106D5E3
:100A2000FFF722FC401B0228F6D9032028E0164BD2
:100A3000DA6A0F218A43E16A0A43DA625A68144982
:100A40000A40A16A606A01430A435A601968802219
:100A500052040A431A60FFF707FC04000A4B1B68A4
:100A60009B0106D4FFF700FC001B0228F6D90320E7
:100A700006E0002004E0002002E0012000E0002069
:100A800002B070BD0120FBE700100240FFFFFFFE37
:100A9000FFFFC2FF30B589B004AA154B180032C859
:100AA00032C2110002680A606A46103313CB13C2C7
:100AB0001B6813600F4B5A680C231340082B13D18B
:100AC000910C0733194004A8445C0A49C96A0B40D9
:100AD0006946C95CD30302D40748604305E0074870
:100AE000FFF71EFB604300E0044809B030BDC0467C
:100AF0001C1E00080010024000093D0000127A0090
:100B000070B505000C004D4B1A68012313408B4251
:100B10000BD24A490B680122934323430B600B68B5
:100B20001A40944201D0012085E02B689B0706D52E
:100B3000434A5368F0218B43A9680B4353602B68E9
:100B4000DB074CD56B68012B21D0022B25D03C4A0A
:100B50001268920700D46FE039494A680320824343
:100B600013434B60FFF780FB06006B68012B1AD024
:100B7000022B26D0324B5B680C221A422FD0FFF793
:100B800073FB801B2F4B9842F4D9032053E02C4A6F
:100B900012689203E0D401204DE0294A12689201C4
:100BA000DAD4012047E0264B5A680C231340042B6B
:100BB00015D0FFF759FB801B224B9842F3D9032035
:100BC00039E01F4B5A680C231340082B07D0FFF75E
:100BD0004BFB801B1B4B9842F3D903202BE0174B98
:100BE0001A68012313409C420BD214490B6801225E
:100BF000934323430B600B681A40944201D00120B9
:100C000019E02B685B0706D50D4A53680E490B4067
:100C1000E9680B435360FFF73DFF094B5A6812091F
:100C20000F231340094AD35CD840094B18600020B9
:100C300001F020F8002070BD0120FCE700200240F8
:100C40000010024088130000FFF8FFFF501E00084C
:100C500004000020014B18687047C04604000020C3
:100C600010B5FFF7F7FF044B5A68120A0723134029
:100C7000024AD35CD84010BD00100240601E00083C
:100C800010B5072303600A4B5C68032222404260D0
:100C90005C68F022224082605B68E022D200134050
:100CA000C360044B1A68012313400B6010BDC0469B
:100CB000001002400020024070B582B004000368BA
:100CC000DB0335D53C4BDB69DB0048D43A4AD169BC
:100CD000802040050143D161D36903400193019B0A
:100CE0000125364B1B68DB053BD5334B1B6AC02205
:100CF0009200134013D061680A4093420FD02E4BEC
:100D0000186A2F4A02401E6A802149023143196243
:100D1000196A2C4E314019621A62C30735D4264A2B
:100D2000136A27490B4061680B431362012D3BD0C6
:100D30002368DB0706D5204A136B03218B43A16888
:100D40000B43136323689B0633D51B4A136B102197
:100D50008B43E1680B431363002002B070BD002594
:100D6000BFE7164A116880235B000B431360FFF74F
:100D70007BFA0600114B1B68DB05B6D4FFF774FA4B
:100D8000801B6428F6D90320E7E7FFF76DFA060019
:100D9000094B1B6A9B07C2D4FFF766FA801B0A4BFC
:100DA0009842F5D90320D8E7D36908490B40D361AD
:100DB000BEE70020D1E7C0460010024000700040AE
:100DC000FFFCFFFFFFFFFEFF88130000FFFFFFEFA8
:100DD00070470368DA6801210A43DA600268136821
:100DE0000B4313600020704770477047704770478F
:100DF00010B5040003681A6992070FD5DA689207E4
:100E00000CD5032252421A610123037703689B69C0
:100E10009B0763D0FFF7E9FF0023237723681A6954
:100E2000520712D5DA6852070FD5052252421A61CD
:100E30000223237723689A69C0239B001A4253D068
:100E40002000FFF7D2FF0023237723681A691207D7
:100E500010D5DA6812070DD5092252421A6104230F
:100E600023772368DB699B0745D02000FFF7BDFF90
:100E70000023237723681A69D20612D5DA68D206CE
:100E80000FD5112252421A61082323772368DA69A9
:100E9000C0239B001A4235D02000FFF7A6FF002395
:100EA000237723681A69D20702D5DA68D20730D4CB
:100EB00023681A69120602D5DA68120630D423684C
:100EC0001A69520602D5DA68520630D423681A69C4
:100ED000920602D5DA68920630D410BDFFF784FF7F
:100EE0002000FFF783FF97E72000FFF77DFF20003A
:100EF000FFF77CFFA7E72000FFF776FF2000FFF752
:100F000075FFB5E72000FFF76FFF2000FFF76EFFCA
:100F1000C5E7022252421A61200000F0B5FDC7E782
:100F2000812252421A61200000F075F8C7E7412281
:100F300052421A612000FFF75AFFC7E721225242AE
:100F40001A61200000F066F8C7E7000003681D4A38
:100F5000904232D01C4A90422FD01A4A90420ED072
:100F6000194A90420BD0194A904208D0184A904230
:100F700005D0184A904202D0174A904203D1174A2E
:100F80001340CA681343802293434A6913430360A2
:100F90008B68C3620B6883620A4B984208D00C4B83
:100FA000984205D00B4B984202D00B4B984201D18E
:100FB0000B690363012343617047702293434A68BE
:100FC0001343CAE7002C0140000400400020004009
:100FD000004001400044014000480140FFFCFFFF89
:100FE00070B5041E14D03D23C35C002B0AD03D25F0
:100FF00002236355211D2068FFF7A8FF01236355D5
:10100000002070BD00223C33C254FFF7E1FEEEE742
:101010000120F6E770477047842801D003307047FD
:101020000020FCE710B500F0B3F9002010BDF0B5CA
:1010300085B00D004668076804690823C05EFFF7A5
:10104000EBFFA2B203AB019300902B0039003000FC
:1010500000F06EF9012802D1039805B0F0BD002020
:10106000FBE710B5002800D1013000F0AFFA0020F6
:1010700010BD10B500F038FB012801D000F0D2FB04
:1010800010BD030008334360012252428260C360F6
:1010900003610023036070470023036170474368C6
:1010A0004B609A688A609A68516099600861036829
:1010B00001330360704730B50C68631C02D0020036
:1010C000083202E0026904E01A0053681D68AC426D
:1010D000FAD253684B6099608A6051600861036876
:1010E0000133036030BD03694268816891608268A2
:1010F000416851605A68904205D0002202611A6826
:10110000501E1860704782685A60F6E70A4B9B6A67
:101110001B68002B09D10133002B08D1064B9A6ABA
:10112000D268D2685268DA6270470023F4E701227D
:101130005242014BDA62F7E72400002010B50400A8
:10114000006B00F063FC200000F060FC10BD0000AC
:10115000F0B583B000900193089C0A9E1D4B9C46FD
:1011600062449200336B9C46624407239A43170003
:1011700000230F2B09D8C8180578F21834321570DF
:101180000278002A01D00133F3E700224323F2540E
:10119000062C00D90624F46274640025B564301D61
:1011A000FFF77AFF30001830FFF776FF366107232C
:1011B0001C1BB4617662F5644933F554019A0099B9
:1011C000380000F0C7FA3060099B002B00D01E6089
:1011D00003B0F0BDFFFFFF3FF8B5002408E0A30017
:1011E0001B199A00104830308018FFF74AFF01346D
:1011F000062CF4D90D4C27003C373800FFF741FF8F
:10120000260050363000FFF73CFF074D2800143011
:10121000FFF737FF20006430FFF733FF2800FFF7A8
:1012200030FFAF62A667F8BD24000020A4000020B4
:1012300010B5040000F0ACFA1F4AD36F0133D36736
:101240001E4B1B68002B2BD01C4B5B68002B07D15F
:101250001A4B1B68DB6AE26A934201D8174B1C6089
:10126000164B9A6801329A60E26ADB689A4201D9A9
:10127000124BDA60211D93009B189A001048303001
:101280008018FFF70CFF00F08FFA0C4B5B68002B07
:1012900005D00A4B1B68DA6AE36A9A4208D310BD8C
:1012A000064B1C60D36F012BDAD1FFF795FFD7E710
:1012B00000F062FAF3E7C046A400002024010020F9
:1012C0002400002070B504000D00164B1E6918683C
:1012D0000430FFF708FF631C12D03419114B1B6850
:1012E0005C60A64215D8104DA86A0E4B19680431EF
:1012F000FFF7E1FEEB6A9C4212D20B4BDC620FE07F
:10130000002DEAD0074B196804310748FFF7C7FEE4
:1013100006E0064B986F034B19680431FFF7CBFECC
:1013200070BDC0462401002024000020A40000203D
:10133000F0B587B00490059114001F00900000F0F4
:1013400001FB061E1ED0542000F0FCFA051E15D02D
:101350000663002D18D00023039302950D9B019383
:101360000C9B00933B00220005990498FFF7F0FEC8
:101370002800FFF75DFF012007B0F0BD300000F04E
:1013800045FBE6E70025E4E701204042F4E70000E2
:1013900000B583B00F4B1C330193002300938022D0
:1013A0000D490E48FFF7C4FF012803D0431C0ED09F
:1013B00003B000BD72B601225242094BDA62054BFE
:1013C00002325A6000221A6100F052FAF0E772B657
:1013D000FEE7C04624010020681E000851160008E0
:1013E00024000020024A9369013393617047C0468C
:1013F00024010020F8B53C4B9B69002B68D13A4B87
:101400001D6901351D61002D12D1384B9B6A1B6887
:10141000002B01D072B6FEE7344A916A344B986FC4
:1014200090629967304A136A01331362FFF76EFEC8
:101430002E4BDB6A9D423FD200242B4B1B68DA6A9D
:1014400093009B189A00294B9B181B6B012B44D9C6
:10145000012442E00124254B9B6A1B68002B2DD000
:101460000023002B2CD1214B9B6ADB68DE6873685C
:101470009D422AD3371D3800FFF735FEB36A002B93
:1014800003D030001830FFF72EFEF26A164BDB68EF
:101490009A4201D9144BDA6093009B189A001348C2
:1014A000303080183900FFF7FAFDF26A0E4B1B68E6
:1014B000DB6A9A42CED2CEE70024CCE70133D0E7F4
:1014C00001225242094BDA62B7E7084AD362B4E715
:1014D000054A536A013353620024034B9B6A002B75
:1014E00000D001242000F8BD2401002024000020A9
:1014F000A400002070B5324B9B69002B01D172B65D
:10150000FEE700F045F92E4B9A69013A9A619B6912
:10151000002B51D12B4BDB6F002B04D1002400F0AA
:1015200043F9200070BD0024274B5B69002B24D0B9
:10153000254B1B6ADC6820001830FFF7D4FD251D01
:101540002800FFF7D0FDE26A1D4BDB689A4201D903
:101550001B4BDA6093009B189A001B4830308018B0
:101560002900FFF79CFD164B1B68DB6AE26A9A4272
:10157000DAD30122124B9A62D6E7002C01D0FFF792
:10158000C5FD0F4B5C6A002C0AD10D4B9B6A002BEA
:1015900014D000F0F1F80124C1E7013C002C07D081
:1015A000FFF728FF0028F8D00122054B9A62F4E7E4
:1015B0000022034B5A62E8E70024B0E70024AEE7BC
:1015C00024010020A40000202400002010B5041EE7
:1015D0000ED00A4B9B69002B01D072B6FEE7FFF7D5
:1015E00001FF00212000FFF76DFEFFF783FF00E001
:1015F0000020002801D100F0BFF810BD2401002018
:1016000070B5114B5B69002B1CD0FFF7EBFE0F4B45
:101610005C6EFFF76FFF002CF3D000F0B9F80B4CB5
:10162000236FDD68281DFFF75EFDE36F013BE36775
:10163000054A5369013B536100F0B6F82800FFF7F3
:101640007DFDDEE770BDC04624010020A40000201F
:1016500010B5FFF7D5FF034B1B6B012BF9D900F039
:101660008BF8F6E72400002010B51D4B9B69002B7A
:101670000FD11B4B00229A62DB689A00D2189100AE
:10168000184A5218126B002A09D1002B05D0013BD1
:10169000F3E70122124B9A6210BD72B6FEE7114ABF
:1016A0009900CC18A0001018446B64684463303271
:1016B000C91888000830121894420AD09A00D2182B
:1016C0009100084A5218526BD168054A1160D360E4
:1016D000E2E760688900034A52185063EEE7C046AB
:1016E0002401002024000020064B5B68002B05D05D
:1016F000044B9B69002B03D1022070470120FCE7BB
:101700000020FAE724010020034B1B68013301D0BD
:1017100072B6FEE772B6FEE700000020000000008F
:101720000B4A13681868203080F30988022080F380
:101730001488BFF36F8F3FBCAE4608BC04BC62B6D2
:101740001847C046C046C046C046C046C046C04610
:101750002401002010B5031F802464041C60043B96
:101760001960043B02491960143B1A60403810BDEF
:10177000091700087047000080225205034B1A60C9
:10178000BFF34F8FBFF36F8F7047C04604ED00E08B
:1017900072B6044A136801331360BFF34F8FBFF36F
:1017A0006F8F704700000020064B1B68002B01D193
:1017B00072B6FEE7013B034A1360002B00D162B60C
:1017C0007047C04600000020EFF3108072B67047EB
:1017D000002080F310887047000000000000000027
:1017E000EFF309800E4B1A6820381060F0C04446B1
:1017F0004D4656465F46F0C008B572B6FFF734FF57
:1018000062B60CBC116808681030F0C8A046A94642
:10181000B246BB4680F309882038F0C81847C04656
:101820002401002010B5FFF7CFFF0400FFF7E2FD11
:10183000002803D080225205024B1A602000FFF7D7
:10184000C8FF10BD04ED00E010B5064B1868FA2182
:101850008900FEF765FC0138034B18600722034B33
:101860001A6010BD0400002014E000E010E000E069
:1018700010B50A4B1968FF2212040A431A6019684E
:10188000FF2212060A431A60FFF7DEFF0022044B14
:101890001A60FFF745FFFFF737FFC04620ED00E075
:1018A0000000002010B5114A53071BD0D11D07239B
:1018B0009943C0231B015B1A9B180A000C490A605C
:1018C00000204860D318083B0724A3438B6058606E
:1018D0001860981A50601360C860086180231B0666
:1018E0004B6110BDC0231B01E8E7C046500100203A
:1018F000500D002010B5124B1A68824219D3596856
:101900005C18A04203D1406809185960180041686A
:101910004418A24211D10A4CA468A2420BD05268CA
:10192000891841601A6812680260984200D01860F5
:1019300010BD1300E0E70460F7E70260F5E7C0467A
:10194000500D002070B50400FFF74CFD2E4B9B6836
:10195000002B0FD02C4B5B6923424AD1002C0CD0BA
:101960000834630709D007239C430834234204D07A
:1019700072B6FEE7FFF796FFECE7002C3BD0224B58
:101980001B699C4239D8204B1D6801E02B001500D3
:101990006A68944202D92A68002AF7D11A4A9268E2
:1019A00095422CD01E6808362A681A606B681B1B8B
:1019B000102B08D92819420701D072B6FEE7436000
:1019C0006C60FFF797FF69680F4A13695B1A136130
:1019D000D268934201D20C4AD3600B4B5B690B4334
:1019E0006B6000232B60FFF785FD730709D072B68B
:1019F000FEE70026F7E70026F5E70026F3E70026D6
:101A0000F1E7300070BDC046500D002070B50028D1
:101A100020D00500083D6B680F4A52691A4201D177
:101A200072B6FEE7010008390968002901D072B6D4
:101A3000FEE70838040093434360FFF7D3FC636874
:101A4000054A11698C46634413612800FFF752FF71
:101A5000FFF750FD70BDC046500D002082B0064A11
:101A600051698020C00201435161536903400193D1
:101A7000019B02B07047C0460010024010B5012023
:101A8000FFF7EFFAFBE7000010B50268034B9A423C
:101A900000D010BDFEF7E0FBFBE7C046002C014084
:101AA000FEE7000010B51548154B0360154B436069
:101AB000002383600122C260036143618361C361CB
:101AC0000362FEF705FD00280CD100210B48FEF74C
:101AD00065FD00280AD100210848FEF78BFD00288B
:101AE00008D110BDE7210848FFF7DAFFEE210648CC
:101AF000FFF7D6FFF5210448FFF7D2FF700D002055
:101B0000005400400E090020701E000800B595B07A
:101B100002230893013B0B930F330C930023109384
:101B200008A8FEF791FD002827D10723049300237E
:101B3000059306930793002104A8FEF7E1FF002810
:101B40001FD120230093002303936846FFF7B4F8C6
:101B500000281AD1FFF77EF8FA218900FEF7E0FA93
:101B6000FEF7C4FB0420FEF7DDFB00220321012069
:101B70004042FEF77FFB15B000BDB5210548FFF7D9
:101B80008FFFC2210348FFF78BFFC9210148FFF7F0
:101B900087FFC046701E000830B587B0FEF74CFBCB
:101BA000FFF7B4FFFFF75AFFFFF77CFF01A80749D3
:101BB00003000A0032CA32C312CA12C30021FFF75F
:101BC00036FA034B1860FFF72DFAFEE73C1E0008BB
:101BD0006C0D002000B583B0124B996901221143AE
:101BE000996199690A400092009ADA698021490551
:101BF0000A43DA61DB690B400193019B002200215B
:101C000005204042FEF736FB00220321022040421D
:101C1000FEF730FB0022032101204042FEF72AFBA1
:101C200003B000BD0010024000B587B002680E4B43
:101C30009A4201D007B000BDC0230193AE3B02938E
:101C4000113B039303220492059301A90748FEF771
:101C500079FB074AD169802080030143D161D369B0
:101C600003400093009BE5E7005400400004004857
:101C70000010024000B587B0010000220D20FEF7E1
:101C8000F9FA0D20FEF728FB134A91698020000124
:101C900001439161936903400093009B01A902A84D
:101CA000FEF7EEFFFEF7DCFF0C49FEF739FA431EA4
:101CB0000B480C4A02600C4AC26043600023036177
:101CC0008360FFF78DF9002802D0012007B000BD26
:101CD0000348FFF77EF8F9E70010024040420F008A
:101CE000BC0D0020002C0140E70300007047FEE718
:101CF00010B5FFF7BEF910BD10B50248FFF778F830
:101D000010BDC046BC0D0020114B1A6801210A43CA
:101D10001A605A680F4802405A601A680E4802401A
:101D20001A601A680D4802401A605A680C4802404E
:101D30005A60DA6A0F208243DA621A6B094802405D
:101D40001A635A6B8A435A6300229A607047C046EE
:101D5000001002400CB8FF08FFFFF6FEFFFFFBFF7C
:101D6000FFFFC0FFECFEFFFF0D4885460D480E4902
:101D70000E4A002302E0D458C4500433C4188C42E5
:101D8000F9D30B4A0B4C002301E013600432A2424A
:101D9000FBD3FFF7B9FF00F011F8FFF7FDFEFEE7F8
:101DA000002000200000002008000020941E0008F1
:101DB00008000020FC0D0020FEE7000070B50026A2
:101DC0000C4D0D4C641BA410A64209D1002600F056
:101DD00019F80A4D0A4C641BA410A64205D170BD27
:101DE000B300EB5898470136EEE7B300EB5898473D
:101DF0000136F2E78C1E00088C1E00088C1E0008BD
:101E0000901E0008F8B5C046F8BC08BC9E46704756
:0C1E1000F8B5C046F8BC08BC9E46704700
:101E1C0002030405060708090A0B0C0D0E0F10101F
:101E2C000102030405060708090A0B0C0D0E0F101E
:101E3C00801E00087D1A0008000000000000000051
:101E4C0080000000000000000000000001020304FC
:101E5C0006070809000000000102030449444C4530
:101E6C00000000002E2E2F5372632F6D61696E2EB1
:101E7C006300000064656661756C745461736B007B
:041E8C00E900000861
:041E9000C100000885
:081E9400AAAAAAAA00127A0012
:0400000508001D6969
:00000001FF
